:10000000F2EF13F00000000000EF00F0000000002D
:0A0010000000000000000000F3D71C
:10001C00FAC3C9FFC7B002D00000FCD7C9CF00F0AB
:02002C001200C0
:10002E00F250026EF29E0500FF6A0150FE6E005005
:08003E00FD6E02BEF28E1200FD
:100046008292400E0301F711006E2BC3E1FF2CC311
:10005600E2FF00C0E6FF29C300F02AC301F0E4DF97
:100066002BC3E1FF2CC3E2FFF8C3E6FF29C300F070
:100076002AC301F0D9DF2BC3E1FF2CC3E2FFF9C38A
:10008600E6FF29C300F02AC301F0CEDF8282120008
:10009600020E0301F76FF4C3F8F3F5C3F9F3D0DFEB
:1000A60082922BC3E1FF2CC3E2FF7A0EE66E29C3D0
:1000B60000F02AC301F0B8DF2BC3E1FF2CC3E2FF37
:1000C600F6C3E6FF29C300F02AC301F0ADDF828242
:0200D600120016
:1000D8008292A00E0301F411006E2BC3E1FF2CC322
:1000E800E2FF00C0E6FF29C300F02AC301F09BDF4E
:1000F8002BC3E1FF2CC3E2FFF5C3E6FF29C300F0E1
:0A0108002AC301F090DF828212008A
:1001120082922BC3E1FF2CC3E2FF7A0EE66E29C363
:1001220000F02AC301F082DF2BC3E1FF2CC3E2FF00
:10013200F4C3E6FF29C300F02AC301F077DF82820D
:020142001200A9
:100144000301F76BF4C3F8F3F5C3F9F37ADF829292
:100154002BC3E1FF2CC3E2FF3A0EE66E29C300F085
:100164002AC301F062DF2BC3E1FF2CC3E2FFE66A7E
:0E01740029C300F02AC301F058DF8282120076
:100182008292800E0301F411006E2BC3E1FF2CC397
:10019200E2FF00C0E6FF29C300F02AC301F046DFF8
:1001A2002BC3E1FF2CC3E2FFF5C3E6FF29C300F036
:0A01B2002AC301F03BDF8282120035
:1001BC0082922BC3E1FF2CC3E2FFF4C3E6FF29C3F9
:1001CC0000F02AC301F02DDF2BC3E1FF2CC3E2FFAB
:1001DC00E66A29C300F02AC301F023DF82821200F1
:1001EC000301F36B010EEC5F000EED5BF0530DE0C1
:1001FC00ED51190802E1EC51AD0807E2F32BAD0EFD
:10020C00EC5DF16F190EED59F26FF35305E0AD0E85
:10021C00016E190E026E04D0ECC301F0EDC302F0B6
:10022C00EB51021802E10150EA190DE1EAC3F4F3B3
:10023C00EBC3F5F381DF00C0F6F3EEC3F4F3EFC3C9
:10024C00F5F323DF36D0100E0301F76FEAC3F8F392
:10025C00EBC3F9F3F2DE120E0301F76FF35305E073
:10026C00AD0E006E190E016E04D0ECC300F0EDC3A0
:10027C0001F000C0F8F301C0F9F3DFDE140E030146
:10028C00F76FEEC3F8F3EFC3F9F3D7DE1F0E0301DC
:10029C00F46F100EF56F1ADF1F0E0301F46F200EB2
:1002AC00F56F69DF1F0E0301F46F82DF00AA01D026
:1002BC00F9D70301F3531AE0EA51EC5D006EEB51F0
:1002CC00ED59016EF151005EF251015A004A012ABA
:1002DC000050EE270150EF23010EF15DEC6F000E84
:0E02EC00F259ED6FEA6BEB6BF36B8FD71200DC
:1002FA0082922BC3E1FF2CC3E2FF7A0EE66E29C37A
:10030A0000F02AC301F08EDEECC300F0EDC301F069
:10031A00010E0301EC5F000EED5B0050011013E0CB
:10032A002BC3E1FF2CC3E2FFEAC3E9FFEBC3EAFFF9
:10033A00EECFE6FF29C300F02AC301F073DE030102
:0A034A00EA4BEB2BE1D78282120090
:10035400020E0301F76FEAC3F8F3EBC3F9F371DE9E
:1003640082922BC3E1FF2CC3E2FF7A0EE66E29C30F
:1003740000F02AC301F059DE0301EE51EF1117E03A
:100384002BC3E1FF2CC3E2FFECC3E9FFEDC3EAFF9B
:10039400EECFE6FF29C300F02AC301F046DE0301D5
:1003A400EC4BED2B010EEE5F000EEF5BE5D7828286
:0203B400120035
:1003B600EAC3F4F3EBC3F5F3ECC3F6F369DEEDC37E
:0603C600F4F3A4DE1200B6
:1003CC000301EC51EA25EE6FED51EB21EF6F010EBD
:1003DC00EE5F000EEF5B100EF76FEAC3F8F3EBC3A2
:1003EC00F9F32BDE120E0301F76FEEC3F8F3EFC334
:1003FC00F9F323DE1F0E0301F46F300EF56FBBDE35
:10040C001F0E0301F46FD4DE00AA01D0F9D712003D
:10041C0082922BC3E1FF2CC3E2FF7A0EE66E29C356
:10042C0000F02AC301F0FDDD2BC3E1FF2CC3E2FF7A
:10043C00EBC3E6FF29C300F02AC301F0F2DD2BC3A6
:10044C00E1FF2CC3E2FFEAC3E6FF29C300F02AC395
:08045C0001F0E7DD82821200CD
:10046400ECC304F0EDC305F0EAC302F0EBC303F000
:10047400EEC300F0EFC301F0010E0301EE5F000EC6
:10048400EF5B005001100FE004C0E9FF05C0EAFF74
:1004940002C0E1FF03C0E2FFEECFE6FF024A032AF7
:1004A400044A052AE5D7EAC300F0EBC301F01200C1
:1004B400AE0E0301F46F190EF56FF66BEADDAE0EA6
:1004C4000301EA25006E190EEB21016E00C0EAF368
:1004D40001C0EBF3060EF76F00C0F8F301C0F9F3A7
:1004E400B0DD1F0E0301F46F800EF56F48DE1F0EA2
:1004F4000301F46F800EF56FEDDD03013451050A3D
:1005040004E03451070A01E005D01C0EF46F0A0E12
:10051400F56FE0DD1F0E0301F46F080EF56F2FDE9B
:1005240003013451050A04E03451070A01E07FD085
:10053400EE6BEF6B1C0EF46F3FDE0A0E00160052DA
:100544000AE10301EE4BEF2B030EEF5D02E1E80E2F
:10055400EE5D01E2EFD703011C0EF46F2DDE00B255
:1005640008D0030E0301EF5D02E1E80EEE5D01E247
:100574005DD003011F0EF46F080EF56FABDD040EA2
:100584000301EA25F46F000EEB21F56FD9DD00C0FD
:10059400EDF30301EC6B100EEC5D48E21C0EF46FFE
:1005A4000BDE00A23FD00301EDAB3CD01F0EF46F75
:1005B400800EF56FE4DD1F0E0301F46F800EF56FFE
:1005C40089DD1C0E0301F46F0A0EF56F83DD1F0E27
:1005D4000301F46F080EF56FD2DD0301EE6BEF6BD0
:1005E4001C0EF46FE9DD0A0E001600520AE1030145
:1005F400EE4BEF2B030EEF5D02E1E80EEE5D01E240
:10060400EFD703011F0EF46F080EF56F63DD040EC0
:100614000301EA25F46F000EEB21F56F91DD00C0B4
:10062400EDF301D003D00301EC2BB5D707D00301C0
:100634001F0EF46FC1DD00A601D0F9D71D0E030112
:10064400F46FBADD060E0016005202E0006A02D012
:06065400010E006E120011
:10065A00DCC3EAF3DDC3EBF3300E0301EC6F030EE8
:10066A00ED6F040EEE6F000EEF6FF7DEDE6BDE51FC
:10067A00030821E3DE51DC25026E000EDD21036E44
:10068A0002C0E9FF03C0EAFFEECF01F0110EE96EE6
:10069A00030EEA6EDE51E926D8B0EA2AFF0EEE18FA
:1006AA00006E0150001202C0E1FF03C0E2FF00C069
:0806BA00E6FFDE2BDCD7120085
:1006C200AF0E0301EA6F190EEB6FDCC3ECF3DDC36F
:1006D200EDF3060EEE6F000EEF6F3BDE0B0EEA6FD0
:1006E200030EEB6F060EEC6F000EED6F05DE000ED3
:1006F200EA6F080EEB6F91DE1C0E0301E425E76F33
:10070200000EE521E86F000EEA6F450EEB6F85DE05
:10071200E7C3EAF3E8C3EBF380DE39C3EAF33AC393
:10072200EBF37BDE0301394B3A2BEA6BEB6B75DEA5
:10073200110E0301EA6F800EEB6F6FDE0301EA6BAD
:10074200EB6B6BDE300E0301EA6F030EEB6F040EF0
:10075200EC6F000EED6FD0DDDEC3EAF3DFC3EBF327
:10076200040EEC6F000EED6FC7DD080EE425E76F97
:10077200000EE521E86FE0C3EAF3E1C3EBF34DDEDF
:10078200E2C3EAF3E3C3EBF348DEE7C3EAF3E8C309
:10079200EBF343DE0301EA6BEB6B3FDEBD0E0301BD
:1007A200EA6F190EEB6F140EEC6F000EED6F0DDE9B
:1007B200160E0301F46F01DD00C0E9F3170E030109
:1007C200F46FFBDC00C0ECF3C70E0301EA6F190EF5
:1007D200EB6FE9C3EDF3EEDD010E0301E715E66F02
:1007E200D90EE425F46F190EE521F56FF66B52DC94
:1007F200C90E0301EA6F190EEB6FD10EEC6F190EE1
:10080200ED6FD90EE425EE6F190EE521EF6FE6517B
:10081200EE27000EEF23F06BE8DCD90EE425EA6F39
:10082200190EE521EB6FE651EA27000EEB23080EC5
:10083200EA27000EEB23EC6B110EED6FBBDDE8C374
:10084200F4F366DCE7C3F4F363DCD10E0301EA6F71
:10085200190EEB6F0C0EE725EC6F000EE821ED6F21
:10086200E651EC27000EED23B0DD160E0301F46F06
:10087200A4DC00C0E9F3170E0301F46F9EDC00C094
:10088200ECF3D70E0301EA6F190EEB6FE9C3EDF338
:1008920091DD2A0E0301E425EA6F000EE521EB6FDC
:0408A20008DE12005A
:1008A60082922BC3E1FF2CC3E2FF7A0EE66E29C3C8
:1008B60000F02AC301F017EC00F0DFC300F0E0C33C
:1008C60001F0010E0301DF5F000EE05B0050011036
:1008D6001CE02BC3E1FF2CC3E2FFDCC3F6FFDDC344
:1008E600F7FFDEC3F8FF0900F5CF00F000C0E6FF12
:1008F60029C300F02AC301F017EC00F0010E030132
:0E090600DC27000EDD23DE23D8D7828212000C
:100914000301DF51FF0A02E1FF0EDE1907E0F76B66
:10092400DEC3F8F3DFC3F9F323EC00F082922BC3A8
:10093400E1FF2CC3E2FF3A0EE66E29C300F02AC39E
:1009440001F017EC00F0E0C300F0E1C301F0010E88
:100954000301E05F000EE15B0050011015E02BC3C2
:10096400E1FF2CC3E2FFE66A29C300F02AC301F0C9
:1009740017EC00F0DCC3E1FFDDC3E2FF00C0E6FFDB
:0C0984000301DC4BDD2BDFD78282120068
:1009900082922BC3E1FF2CC3E2FF3A0EE66E29C31D
:1009A00000F02AC301F017EC00F02BC3E1FF2CC3C9
:1009B000E2FFE66A29C300F02AC301F017EC00F059
:0409C000828212001D
:1009C400E0C301F0E1C302F0010E0301E05F000E99
:1009D400E15B000E021802E1000E01181FE0DCC307
:1009E400E9FFDDC3EAFFDEC3D9FFDFC3DAFFEE5060
:1009F400DE180FE0DCC3E9FFDDC3EAFFDEC3D9FF85
:100A0400DFC3DAFFDE50EE5C006E016A000E015AAD
:100A140007D0DC4BDD2BDE4BDF2BD2D7006A016A1B
:020A24001200BE
:100A2600020E0C6E490E0D6E0D2EFED70C2EFCD747
:060A3600000000001200A8
:100A3C000301D66B3C0E156F000E166F176F186FF7
:100A4C00A1DF00C0D4F30050020AD8A418D10301CE
:100A5C00D56B0F0ED55D04E295DF0301D52BF9D7CD
:100A6C00070EDC6F030EDD6FFF0EDE6FFF0EDF6F08
:100A7C00040EE06F000EE16F47DFD56B080ED55DFD
:100A8C0004E280DF0301D52BF9D7D56B060ED55DBB
:100A9C0012E278DF00C0D4F30B0ED96E030EDA6EBF
:100AAC000301D551D926D8B0DA2A0050DE1801E05E
:100ABC0011D1D52BEBD7D56BCE0ED55D04E262DF11
:100ACC000301D52BF9D7D76B5DDF00C0D4F3B8D0B9
:100ADC0059DF00C0D4F30050010A04E153DF00C019
:100AEC00D6F301D0F7D0C7D04DDF00C0D4F30050FF
:100AFC00040A0FE1210E0301DC6F030EDD6FFF0E04
:100B0C00DE6FFF0EDF6F040EE06F000EE16FFCDE98
:100B1C0001D0E0D0B0D036DF00C0D4F3040E005CBE
:100B2C000FE3250E0301DC6F030EDD6FFF0EDE6F8E
:100B3C00FF0EDF6F040EE06F000EE16FE5DE01D0FB
:100B4C00C9D00301040ED45F0301D4C300F0D40751
:100B5C00005202E017DFF8D78ED014DF00C0D4F3B8
:100B6C00040E005C0FE3190E0301DC6F030EDD6F46
:100B7C00FF0EDE6FFF0EDF6F040EE06F000EE16FF5
:100B8C00C3DE01D0A7D00301040ED45F0301D4C38C
:100B9C0000F0D407005202E0F5DEF8D76CD0F2DE9C
:100BAC0000C0D4F30050040A0FE1D80E0301DC6F2F
:100BBC00030EDD6FFF0EDE6FFF0EDF6F040EE06FB6
:100BCC00000EE16FA1DE01D085D055D00301010EDE
:100BDC00D76F51D0D7DE00C0D4F30050040A22E105
:100BEC00150E0301DC6F030EDD6FFF0EDE6FFF0EC3
:100BFC00DF6F040EE06F000EE16F86DE1851000807
:100C0C0008E11751000805E11651070802E11551DA
:100C1C00080807E2080E155F070E165B000E175B3F
:100C2C00185B01D057D027D0ADDE00C0D4F3D4C3AD
:100C3C0000F00301D407005202E0A4DEF8D71BD069
:100C4C000301D451350AD8B443D7D451010AD8B4CE
:100C5C004BD7D451030AD8B45ED7D451060AD8B4B2
:100C6C007CD7D451360A9BE0D451FF0AAFE0D45163
:100C7C00330AB0E0D9D70301D753D8B425D7030131
:100C8C00D651020A0FE11D0EEA6F030EEB6FD80E60
:100C9C00EC6F030EED6F040EEE6F000EEF6F32EC87
:100CAC0002F015D01D0EDC6F030EDD6FD80EDE6F5B
:100CBC00030EDF6F040EE06F000EE16F7DDE000EA1
:100CCC00011802E1000E001802E00301D66BD6C336
:080CDC0000F001D0006A1200D3
:100CE400110E0301EA6F030EEB6FD4C3ECF3D5C30B
:100CF400EDF3040EEE6F000EEF6F32EC02F0490ECE
:100D0400EA6F030EEB6FD6C3ECF3D7C3EDF3040E17
:100D1400EE6F000EEF6F32EC02F04D0EEA6F030E31
:100D2400EB6FD8C3ECF3D9C3EDF3040EEE6F000EF2
:100D3400EF6F32EC02F0430EDC6F030EDD6F8BDCE1
:020D440012009B
:100D4600D4C302F0D5C303F0D7C300F0D8C301F073
:100D5600010E0301D75F000ED85B0050011009E0B9
:100D660002C0E1FF03C0E2FFD6C3E6FF024A032A40
:0C0D7600EBD7D4C300F0D5C301F012008D
:100D8200F90E0301D76F000ED86F020EF76FD90E5E
:100D9200F86F190EF96F23EC00F0220E0301DC6FDD
:100DA2002B0EDD6F000EDE6F0C0EDF6F000EE06F9C
:100DB20079DDD451030A0DE1D5530BE0070EEA6F3A
:100DC200030EEB6F040EEC6F000EED6F7DEC01F085
:100DD2000AD0D66B040ED65D06E2F46B89EC00F005
:100DE2000301D62BF7D7D66B0C0ED65D06E2F46B59
:100DF20089EC00F00301D62BF7D70B0EEA6F030E36
:100E0200EB6F060EEC6F000EED6F7DEC01F0D66B12
:100E1200CA0ED65D06E2F46B89EC00F00301D62B14
:100E2200F7D73A0EDC6F2B0EDD6F000EDE6F060E6B
:100E3200DF6F000EE06F36DDD4C3F4F389EC00F00F
:100E42000301D451030A1AE1D55318E1360EF46FA7
:100E520089EC00F0040E0301F46F89EC00F01D0E22
:100E62000301EA6F030EEB6F040EEC6F000EED6FE1
:100E72007DEC01F0060ED727000ED823400EDC6F62
:100E82002B0EDD6F000EDE6F050EDF6F000EE06FC2
:100E920009DDD451030A23E1D55321E1320EF46F67
:100EA20089EC00F0040E0301F46F89EC00F00301F9
:100EB200D66B040ED65D0FE2070EE96E030EEA6EE4
:100EC200D651E926D8B0EA2AEECFF4F389EC00F045
:100ED2000301D62BEED7060ED727000ED823FF0E1E
:100EE200F46F89EC00F0220E0301DC6F000EDD6F5F
:100EF200220EDE6F000EDF6F440EE06F000EE16F18
:100F0200430EE26F000EE36FD7C3E4F3D8C3E5F3F9
:060F120061EC03F0120087
:100F18000301D86BD96B82922BC3E1FF2CC3E2FF8C
:100F28007A0EE66E29C300F02AC301F017EC00F030
:100F3800D4C300F0D5C301F0D6C302F0010E0301FB
:100F4800D427000ED523D62300C0F6FF01C0F7FF33
:100F580002C0F8FF0900F5CF00F000C0D7F3005237
:100F680010E02BC3E1FF2CC3E2FFD7C3E6FF29C380
:100F780000F02AC301F017EC00F00301D84BD92B7D
:0E0F8800D7D78282D8C300F0D9C301F012007F
:100F96000301D76BD86B82922BC3E1FF2CC3E2FF10
:100FA6007A0EE66E29C300F02AC301F017EC00F0B2
:100FB600D4C300F0D5C301F00301D44BD52B00C038
:100FC600E9FF01C0EAFFEECF00F000C0D6F3005201
:100FD60010E02BC3E1FF2CC3E2FFD6C3E6FF29C313
:100FE60000F02AC301F017EC00F00301D74BD82B11
:0E0FF600DFD78282D7C300F0D8C301F012000B
:10100400B50E0301EA6F190EEB6FBB0EEC6F190EF0
:10101400ED6FAF0EEE6F190EEF6FF06BF6EC00F0A4
:10102400B50EEA6F190EEB6F0B0EEC6F030EED6F3E
:0E103400060EEE6F000EEF6FAAEC01F0120038
:101042000B6A0A6A096A00500402F4CF09F0F3CF6E
:1010520008F001500502F4CF0BF0F3CF0AF0005074
:101062000502F3500926F4500A22E86A0B220150C5
:101072000402F3500926F4500A22E86A0B2208C03F
:1010820000F009C001F00AC002F00BC003F0120028
:101092000301F46BDEEC00F000C0CBF3010E0301A0
:1010A200F46FDEEC00F000C0CCF30301F76BC6C3B3
:1010B200F8F3C7C3F9F323EC00F082922BC3E1FFEC
:1010C2002CC3E2FF3A0EE66E29C300F02AC301F0F8
:1010D20017EC00F00301CA5318E02BC3E1FF2CC345
:1010E200E2FFE66A29C300F02AC301F017EC00F020
:1010F200C8C3D9FFC9C3DAFF0050DE1801E005D02A
:101102000301C84BC92BCA07E5D703018282F76BDB
:10111200CBC3F8F3CCC3F9F323EC00F0CAC300F05D
:021122001200B9
:101124000301C66BC80EC65D04E27BDC7ADCC62B09
:04113400F9D71200D5
:101138008292400E0301C611006E2BC3E1FF2CC33F
:10114800E2FF00C0E6FF29C300F02AC301F017EC54
:1011580000F02BC3E1FF2CC3E2FFC7C3E6FF29C39E
:0E11680000F02AC301F017EC00F082821200A2
:101176000301C751190802E1C651AD0804E2AE0EDB
:10118600C65F190EC75BF76BC6C3F8F3C7C3F9F39F
:0611960023EC00F0120042
:10119C000301D06BD16B000ED15D02E10A0ED05D64
:1011AC0012E27E0ED025D26F030ED121D36FC8EC84
:1011BC0004F0D2C3E1FFD3C3E2FF00C0E6FF03019A
:1011CC00D04BD12BE8D77E0ED025E16E030ED1216A
:1011DC00E26EE66A7E0EDC6F030EDD6F010EDE6FD3
:1011EC00030EDF6F050EE06F000EE16FE2EC04F012
:1011FC000050011003E0006A016A54D0840E030110
:10120C00DC6F030EDD6FFB0EDE6F020EDF6F020E66
:10121C00E06F000EE16FE2EC04F00050011002E10F
:10122C00837013D0840E0301DC6F030EDD6FFE0E92
:10123C00DE6F020EDF6F020EE06F000EE16FE2EC6C
:10124C0004F000500110D8B48372000E0301CB19C6
:10125C0002E1500ECA1903E0006A016A23D0040EA1
:10126C00D46F2B0ED56F000ED66F50DE00C0D0F3AE
:10127C0001C0D1F32E0ED46F2B0ED56F000ED66F8E
:10128C0045DE0050D0270150D123380ED46F000E0C
:10129C00D56F7BDED0510026D151012200C0D0F396
:0612AC0001C0D1F31200A5
:1012B200C90E0301EA6F190EEB6FCD0EEC6F190E1A
:1012C200ED6FCD0EEE6F190EEF6FF06BF6EC00F0D6
:1012D200C90EEA6F190EEB6F300EEC6F030EED6F55
:0E12E200040EEE6F000EEF6FAAEC01F012008A
:0612F000006A016A120011
:1012F600C8EC04F0C8EC04F0C8EC04F000C0C7F376
:10130600C8EC04F000C0C6F3C8EC04F000C0C9F392
:10131600C8EC04F000C0C8F3C8EC04F000C0CBF37E
:10132600C8EC04F000C0CAF3C8EC04F0C8EC04F042
:10133600C8EC04F0C8EC04F0C8C300F0C9C301F05F
:10134600010E0301C85F000EC95B005001100EE0DC
:10135600C8EC04F0005201E0FBD7C8EC04F0C8EC7E
:1013660004F0C8EC04F0C8EC04F0E6D7CAC300F0F9
:10137600CBC301F0010E0301CA5F000ECB5B005028
:10138600011048E0C8EC04F0C8EC04F0C8EC04F026
:1013960000C0CFF3C8EC04F000C0CEF3C8EC04F0F4
:1013A600C8EC04F0C8EC04F0C8EC04F0C8EC04F097
:1013B600C8EC04F0C8EC04F000C0CDF3C8EC04F0AF
:1013C60000C0CCF3000E0301CF1902E1010ECE19C5
:1013D60011E1C8EC04F000C03BF3C8EC04F000C017
:1013E6003CF3C8EC04F000C03DF3C8EC04F000C0C8
:1013F6003EF310D0CCC300F0CDC301F0010E0301C3
:10140600CC5F000ECD5B0050011003E0C8EC04F089
:06141600F1D7ACD7120073
:10141C00AFD0300E0301D46F030ED56FD66B040E14
:10142C00D76F000ED86F89DC010ED46FD56BA3DC9F
:10143C002BC035F32CC036F32DC037F32EC038F348
:10144C00030E286EA6D0050E03013525016E000E85
:10145C003621026E000E3721036E000E3821046E09
:10146C002E50045C08E12D50035C05E12C50025C0D
:10147C0002E12B50015C02E2020E286E1EEC05F01C
:10148C000050020A03E1040E286E01D082D0030E34
:10149C000301D46F21C0D5F36EDC2BC035F32CC007
:1014AC0036F32DC037F32EC038F3050E286E71D0ED
:1014BC001EEC05F000C0C6F30050060A03E1040E52
:1014CC00286E2CD00301C651050A28E12BC035F338
:1014DC002CC036F32DC037F32EC038F3060E286E11
:1014EC00300EEA6F030EEB6F070EEC6F030EED6F11
:1014FC00040EEE6F000EEF6F32EC02F0210ED46F83
:10150C00030ED56F250ED66F030ED76F190ED86F3D
:10151C00030ED96F72EC06F0216A3BD03AD003016E
:10152C00010E3525016E000E3621026E000E37219C
:10153C00036E000E3821046E04502E5C08E103503B
:10154C002D5C05E102502C5C02E101502B5C0FE399
:10155C000301010E155F000E165B175B185B2BC0A9
:10156C0035F32CC036F32DC037F32EC038F311D021
:10157C002850020AD8B44DD72850030AD8B463D7E0
:10158C002850040A84E02850050A92E02850060AE4
:04159C00C6E0120093
:1015A0009DC3F4F39EC3F5F3A2EC00F000C0ADF3CD
:1015B000C8EC04F000C0ACF3C8EC04F000C0ABF31E
:1015C000C8EC04F000C0AAF30301B26BB76B010EC4
:1015D000B86FB56BB66B0C0E9D25F46F000E9E2197
:1015E000F56FA2EC00F000C0B0F3000E0301B16F84
:1015F000B033B09FB033B09F000EB16FFC0EB01788
:10160000FF0EB117C10EDC6F030EDD6FC90EDE6F6A
:10161000190EDF6F040EE06F000EE16F8AEC04F02C
:101620000D0E9D25F46F000E9E21F56FA2EC00F0CB
:101630003F0E00140301AE6FAF6B000EAF17000E2C
:10164000AF6F0E0E2D5DB36F000E2E59B46F9B5110
:10165000B35F9C51B45BB051B35FB151B45B020E48
:101660009D25F46F000E9E21F56FA2EC00F000C0E6
:10167000F6F39DC3F4F39EC3F5F34BEC00F0030EB9
:1016800003019D25F46F000E9E21F56FA2EC00F082
:1016900000C0F4F389EC00F0ACC3EAF3ADC3EBF3A4
:1016A0000EEC02F0040E03019D25F46F000E9E2146
:1016B000F56FA2EC00F000C0BCF3C8EC04F000C071
:1016C000BBF3C8EC04F000C0BAF3C8EC04F000C0EF
:1016D000B9F3C8EC04F000C0C0F3C8EC04F000C0DB
:1016E000BFF3C8EC04F000C0BEF3C8EC04F000C0C7
:1016F000BDF3000E0301AF1902E1020EAE193CE189
:10170000010EB925006E000EBA21016E000EBB213C
:10171000026E000EBC21036E00C0BDF301C0BEF31B
:1017200002C0BFF303C0C0F3120EAE6F000EAF6F66
:101730000C0EF46FDEEC00F000C0B9F30D0E0301E7
:10174000F46FDEEC00F000C0BAF30301F46BDEECE2
:1017500000F000C0BBF3010E0301F46FDEEC00F0FB
:1017600000C0BCF30301B22B180EB06F000EB16FB6
:10177000B56BB66B1F6A6ED0000EAF1902E1180E82
:10178000AE192FE1B9C39FF3BAC3A0F3BBC3A1F352
:10179000BCC3A2F3BDC3B9F3BEC3BAF3BFC3BBF3AB
:1017A000C0C3BCF3B3519F25006EB451A021016E9C
:1017B000000EA121026E000EA221036E00C0BDF337
:1017C00001C0BEF302C0BFF303C0C0F3100EAE6F82
:1017D000000EAF6FB22B140EB06F000EB16FB72BAF
:1017E00039D0000EAF1902E1110EAE1933E1B9C3C1
:1017F000A3F3BAC3A4F3BBC3A5F3BCC3A6F3BDC391
:10180000B9F3BEC3BAF3BFC3BBF3C0C3BCF3010E8D
:10181000A325006E000EA421016E000EA521026E0C
:10182000000EA621036E00C0BDF301C0BEF302C0CE
:10183000BFF303C0C0F3100EAE6F000EAF6FB22B3C
:10184000140EB06F000EB16FB56BB66B205202E193
:101850001F2A206AB253D8B4C9D1040E9D25EA6F5D
:10186000000E9E21EB6FBCC3ECF3BBC3EDF3DBECCE
:1018700001F0BAC3F4F389EC00F0B9C3F4F389ECD6
:1018800000F0C0C3F4F389EC00F0BFC3F4F389ECBB
:1018900000F0BEC3F4F389EC00F0BDC3F4F389ECAF
:1018A00000F00C0E03019D25F46F000E9E21F56FD4
:1018B000A2EC00F00F0E00140301F66FB0C300F0AD
:1018C00000360090003600900050F6130C0E9D2557
:1018D000F46F000E9E21F56F4BEC00F00D0E03012E
:1018E0009D25F46F000E9E21F56FA2EC00F0C00E56
:1018F00000140301F66FAE51F6130D0E9D25F46F23
:10190000000E9E21F56F4BEC00F0000E0301AF19A5
:1019100002E1120EAE1923E10E0E9D25EA6F000EB4
:101920009E21EB6F050EEC6FEE0EED6FDBEC01F020
:10193000140E03019D25EA6F000E9E21EB6F020E2F
:10194000EC6F040EED6FDBEC01F0050E0301F46F9C
:1019500089EC00F0780E0301F46F89EC00F00301CC
:101960009B51B525B36F9C51B621B46FB051B327CD
:10197000B151B423B85303E002EC08F09ADCBF0E77
:10198000EA6F190EEB6FB4C3ECF3B3C3EDF3DBEC0A
:1019900001F0C70E0301EA6F190EEB6FEC6BED6BF4
:1019A000DBEC01F0BD0E0301EA6F190EEB6F9BC378
:1019B000ECF39CC3EDF3E6EC01F0160E0301F46FBB
:1019C000DEEC00F000C0C5F3170E0301F46FDEEC8F
:1019D00000F000C0ECF3C70E0301EA6F190EEB6FC5
:1019E000C5C3EDF3DBEC01F0BD0E0301B325A86F19
:1019F000190EB421A96F100E9D25EA6F000E9E21CD
:101A0000EB6FEC6BED6BDBEC01F0010E0301B3153A
:101A1000A76FA8C3F4F3A9C3F5F3F66B4BEC00F082
:101A2000C90E0301EA6F190EEB6FD10EEC6F190EA0
:101A3000ED6FA751A825EE6F000EA921EF6FF06B97
:101A4000F6EC00F0080EA825EA6F000EA921EB6F56
:101A5000A751EA27000EEB23EC6B060EED6FDBECD3
:101A600001F00A0E0301A825EA6F000EA921EB6F11
:101A7000A751EA27000EEB23B551B025036EB651EE
:101A8000B121046E04C000F0016A00C0ECF303C091
:101A9000EDF3DBEC01F09DC3EAF39EC3EBF303012E
:101AA000B551B025EC6FB651B121ED6F0C0EEC279E
:101AB000000EED23A751EC27000EED23E6EC01F01C
:101AC000160E0301F46FDEEC00F000C0C5F3170E34
:101AD0000301F46FDEEC00F000C0ECF3100E030124
:101AE0009D25EA6F000E9E21EB6FC5C3EDF3DBEC85
:101AF00001F00E0E0301B325EA6F000EB421EB6F67
:101B00005AEC02F00301B7534CE0100EAE6F000E1A
:101B1000AF6FB76BB86B020EF76FB0519D25F86FC2
:101B2000B1519E21F96F23EC00F00E0E03019925AF
:101B3000C66F000E9A21C76F9B51C6279C51C723C1
:101B4000B051C627B151C723BBEC08F01F2AC10E04
:101B50000301C66F030EC76FACC3C8F3ADC3C9F3AF
:101B6000AAC3CAF3ABC3CBF30E0E2D5DCC6F000E30
:101B70002E59CD6F9B51CC5F9C51CD5BB051CC5F4A
:101B8000B151CD5B2F0ECE6F030ECF6FCEEC08F0B0
:101B900000C0B5F301C0B6F303012FB101D01F6A35
:101BA0005CD61F5223E0B551B925006EB651BA215B
:101BB000016E000EBB21026E000EBC21036E00C040
:101BC000B9F301C0BAF302C0BBF303C0BCF3110EFA
:101BD000AE6F000EAF6F1F6AB86B140EB06F000EC1
:0E1BE000B16FB56BB66B010E206E37D61200DA
:101BEE001F0E0301F46F010EF56F6CEC00F01F0E6B
:101BFE000301F46F020EF56FC1EC00F0140E030139
:101C0E00C66F99C3C7F39CEC08F0120E0301F46F74
:101C1E00010EF56FC1EC00F092EC08F0120EF46FAD
:101C2E00010EF56F6CEC00F0160E0301F46FDEEC96
:101C3E0000F09CC3E1FF9DC3E2FF00C0E6FF170E5C
:101C4E000301F46FDEEC00F09AC3E1FF9BC3E2FFE9
:061C5E0000C0E6FF1200C9
:101C64009CC3F4F39DC3F5F3A2EC00F000C0A7F30A
:101C7400C8EC04F000C0A6F3C8EC04F000C0A5F35F
:101C8400C8EC04F000C0A4F3000E0301A51902E19E
:101C9400000EA41901E18AD0C8EC04F000C0A9F335
:101CA400C8EC04F000C0A8F3AA0E0301DC6F030E15
:101CB400DD6FC90EDE6F190EDF6F040EE06F000ECC
:101CC400E16F8AEC04F0020EF76F080E9C25F86FA2
:101CD400000E9D21F96F23EC00F00E0E03019925EF
:101CE400C66F000E9A21C76F9B51C627000EC723EB
:101CF400080EC627000EC723BBEC08F0000E030134
:101D0400A71902E1350EA61903E17BEC09F04ED0C8
:101D1400000E0301A51902E1440EA41903E10EEC1F
:101D24000AF044D0AA0E0301C66F030EC76FA6C300
:101D3400C8F3A7C3C9F3A4C3CAF3A5C3CBF3080E5E
:101D4400A85DCC6F000EA959CD6F2F0ECE6F030E78
:101D5400CF6F78EC09F000C0A8F301C0A9F30050DC
:101D6400011024E09E0EDC6F030EDD6FB50EDE6FF6
:101D7400190EDF6F060EE06F000EE16F8AEC04F0BF
:101D84009E0EDC6F030EDD6FAA0EDE6F030EDF6F97
:101D9400A4C3E0F3A5C3E1F3A6C3E2F3A7C3E3F34B
:0E1DA400A8C3E4F3A9C3E5F361EC03F0120059
:101DB200C40E0301F46F190EF56FA2EC00F000C01F
:101DC20099F3E8D0D50E0301C66F190EC76F300E16
:101DD200C86F030EC96F040ECA6F49EC08F00050B9
:101DE200000A4BE1C40E0301F46F190EF56F020EE7
:101DF200F66F4BEC00F002EC08F0CB0EEA6F190E16
:101E0200EB6FCF0EEC6F190EED6FD50EEE6F190E54
:101E1200EF6FF06BF6EC00F0CB0EEA6F190EEB6F82
:101E2200300EEC6F030EED6F040EEE6F000EEF6FCF
:101E3200AAEC01F0C50EEA6F190EEB6FCB0EEC6F38
:101E4200190EED6FCF0EEE6F190EEF6FF06BF6EC11
:101E520000F0C50EEA6F190EEB6F0B0EEC6F030E5E
:101E6200ED6F060EEE6F000EEF6FAAEC01F03C0E66
:101E7200EA6F000EEB6F5AEC02F095D0AF0E030141
:101E8200C66F190EC76F0B0EC86F030EC96F060E11
:101E9200CA6F49EC08F00050000A7BE1CB0E030147
:101EA200C66F190EC76F47C3C8F348C3C9F3040E00
:101EB200CA6F49EC08F00050000A6BE10F0E006E89
:101EC200000E016E37C004F0000E056E21EC08F022
:101ED200510E00240301DC6F030E0120DD6F090E99
:101EE200DC27000EDD23C50EDE6F190EDF6F060E36
:101EF200E06F000EE16F8AEC04F00F0E006E000E30
:101F0200016E37C004F0000E056E21EC08F0510E90
:101F12000024EA6F030E0120EB6F050EEA27000E84
:101F2200EB2347C3ECF348C3EDF3040EEE6F000E50
:101F3200EF6F32EC02F00F0E006E000E016E37C032
:101F420004F0000E056E21EC08F0510E0024E16E43
:101F5200030E0120E26E010EE66E0F0E006E000E01
:101F6200016E37C004F0000E056E21EC08F0510E30
:101F72000026030E0122010E0024E16E000E012054
:101F8200E26E2BC0E6FF2CC0E6FF2DC0E6FF2EC09E
:101F9200E6FF09D003019951010AD8B413D7995128
:081FA200020AD8B46BD712004B
:101FAA001F0E0301F46F010EF56F6CEC00F01F0EAB
:101FBA000301F46F020EF56FC1EC00F0140E030179
:101FCA00C66F99C3C7F39CEC08F092EC08F0160EA2
:101FDA00C66F9BC3C7F39CEC08F092EC08F0170E8F
:101FEA00C66F9AC3C7F39CEC08F092EC08F0120093
:101FFA000301C66B8D5303E00D0E006E02D0050E71
:10200A00006E00C0C7F39CEC08F0020E0301C66F15
:10201A008D5303E0310E006E02D0300E006E00C008
:10202A00C7F39CEC08F00A0E0301F76FEE0EF86F87
:10203A00050EF96F23EC00F0040E0301C66F8D53F1
:10204A0003E0150E006E02D0120E006E00C0C7F338
:10205A009CEC08F0060E0301C66F120EC76F9CECCB
:10206A0008F003018D5306E1070EC66F0C0EC76F09
:10207A009CEC08F003018D5306E1090EC66F3F0E72
:10208A00C76F9CEC08F01F0E0301F46F010EF56F89
:10209A00C1EC00F01F0E0301F46F020EF56FC1ECE4
:1020AA0000F0040E0301C66F0BC3C7F39CEC08F0E3
:1020BA00050E0301C66F0CC3C7F39CEC08F0020EB1
:1020CA000301C66F0DC3C7F39CEC08F0030E0301AE
:1020DA00C66F0EC3C7F39CEC08F00301C66B0FC3AF
:1020EA00C7F39CEC08F0010E0301C66F10C3C7F3D7
:1020FA009CEC08F0150E0301C66FC76B9CEC08F048
:10210A00120E0301F46FDEEC00F000C034F3030199
:10211A00996B8E0E9A6F030E9B6F8F0E9C6F030E38
:10212A009D6F60DD0301996BFE0E8E159A6F8D53BC
:10213A0003E0010E006E01D0006A00509A138FC3AB
:10214A009BF32EDF100E996F010E9A6F9B6B28DF9F
:10215A001F0EF46F040EF56FC1EC00F092EC08F05C
:10216A00510ED46F030ED56FD66B2D0ED76F000E9E
:10217A00D86FA3EC06F01F0EF46F010EF56F6CEC2E
:10218A0000F01F0E0301F46F020EF56F6CEC00F005
:02219A00120031
:10219C000301966B2F812F931F0EF46F010EF56FB9
:1021AC006CEC00F01F0E0301F46F020EF56F6CEC7B
:1021BC0000F00301F76B29C0F8F32AC0F9F323EC04
:1021CC0000F082922BC3E1FF2CC3E2FF3A0EE66EC5
:1021DC0029C300F02AC301F017EC00F02BC3E1FF78
:1021EC002CC3E2FFE66A29C300F02AC301F017EC06
:1021FC0000F000C029F02BC3E1FF2CC3E2FFE66A1C
:10220C0029C300F02AC301F017EC00F000C02AF03B
:10221C002BC3E1FF2CC3E2FFE66A29C300F02AC3FB
:10222C0001F017EC00F000C02DF32BC3E1FF2CC321
:10223C00E2FFE66A29C300F02AC301F017EC00F0B4
:10224C0000C02EF32BC3E1FF2CC3E2FFE66A29C3C7
:10225C0000F02AC301F017EC00F000C094F32BC37C
:10226C00E1FF2CC3E2FFE66A29C300F02AC301F0A8
:10227C0017EC00F000C095F38282040E03012D5F71
:10228C00000E2E5B2A50190802E12950AD080DE30F
:10229C0029B00BD095BF09D02E51050802E12D5164
:1022AC00EE0803E394AF01D003D0010E006EC5D14C
:1022BC00F46BDEEC00F000C092F3010E0301F46F3E
:1022CC00DEEC00F000C093F392C3EAF393C3EBF39C
:1022DC0003012D519225EC6F2E519321ED6FAF0E12
:1022EC00EE6F190EEF6F010EF06FF6EC00F0BB0EF7
:1022FC00F46F190EF56FA2EC00F000C095F3C8EC6A
:10230C0004F000C094F303019551080A02E1060E93
:10231C00941911E1BD0EC66F190EC76F2F0EC86F41
:10232C00000EC96F070ECA6F49EC08F00050000A86
:10233C0001E139DD58D103019551080A02E1000E83
:10234C009419D8A44DD1CD0EC66F190EC76F430E7C
:10235C00C86F030EC96F040ECA6F49EC08F0005227
:10236C0002E103012F830301CD0EC66F190EC76F57
:10237C00220EC86F000EC96F040ECA6F49EC08F02C
:10238C00005202E103012F830301CD0EC66F190E1B
:10239C00C76F300EC86F030EC96F040ECA6F49ECBD
:1023AC0008F0005206E003012FB303D0020E966F23
:1023BC0016D10301BD0EF46F190EF56FA2EC00F0EF
:1023CC00F00E0014016E0150400A04E0030E0301EC
:1023DC00966F05D10301BD0EF46F190EF56FA2ECCB
:1023EC0000F000C090F3000E0301916F0F0E9017D8
:1023FC00000E9117903790919137903790919137BB
:10240C00C30EF46F190EF56FA2EC00F0BF0E0014A2
:10241C00016E0150000AD8A4E2D0C40E0301F46F7F
:10242C00190EF56FA2EC00F00050000AD8A4D7D01A
:10243C00BD0E030190258E6F190E91218F6FC60E64
:10244C00F46F190EF56FA2EC00F000C08DF3005084
:10245C00010AD8A488D08EC3F4F38FC3F5F3A2EC91
:10246C0000F00050080AD8A47DD0010E03018E257F
:10247C00F46F000E8F21F56FA2EC00F00050000AF3
:10248C0071E18EC3F4F38FC3F5F30301F66B4BECE0
:10249C0000F002EC08F059EC09F0C70EEA6F190EC7
:1024AC00EB6FEC6BED6BDBEC01F0BD0E0301EA6F37
:1024BC00190EEB6F90C3ECF391C3EDF3E6EC01F066
:1024CC00160E0301F46FDEEC00F000C097F3170E4C
:1024DC000301F46FDEEC00F000C0ECF3C70E030157
:1024EC00EA6F190EEB6F97C3EDF3DBEC01F0020E04
:1024FC0003018E25EA6F000E8F21EB6FEC6BED6BF9
:10250C00DBEC01F08EC3EAF38FC3EBF303019051C4
:10251C002D5DEC6F91512E59ED6F0E0EEC5F000E90
:10252C00ED5BE6EC01F0160E0301F46FDEEC00F04F
:10253C0000C097F3170E0301F46FDEEC00F000C03F
:10254C00ECF3020E03018E25EA6F000E8F21EB6F68
:10255C0097C3EDF3DBEC01F02DC3EAF32EC3EBF3E1
:10256C005AEC02F03CD003018D51110A0DE192C3DB
:10257C0099F393C39AF390C39BF38EC39CF38FC3CD
:10258C009DF332EC0EF02BD003018D51060A27E19E
:10259C00100E9225F46F000E9321F56FA2EC00F053
:1025AC0000C098F30301976BC8EC04F000500301D2
:1025BC0097252D6F000E98212E6F0E0E2D27000ED5
:1025CC002E2392C399F393C39AF390C39BF391C3B5
:1025DC009CF38EC39DF38FC39EF3D0EC0AF003D013
:1025EC000301040E966F03011E0EF46F400EF56F7F
:1025FC00C1EC00F0010E295C016E000E2A58026E2F
:10260C000250190802E10150AD080AE20C0E030158
:10261C00F76FAD0EF86F190EF96F23EC00F00BD0BD
:10262C000C0E0301F76F010E295CF86F000E2A588F
:0C263C00F96F23EC00F096C300F01200D0
:102648001C0E0301296F000E2A6FFA0E2B6F030E62
:102658002C6FFF0E3F6FFF0E406FFF0E416FFF0E96
:10266800426F949A94969488C66A400EC76EC68A3A
:0226780012004E
:10267A000900F5CFE6FF0006FBE10106F9E11200C9
:10268A000301886B1F0EF46F010EF56FC1EC00F0A9
:10269A001F0E0301F46F020EF56F6CEC00F0190EB9
:1026AA000301F46FDEEC00F00050000803E271DD74
:1026BA0000C088F31F0E0301F46F010EF56F6CEC76
:1026CA0000F01F0E0301F46F020EF56F6CEC00F0C0
:0626DA0088C300F01200AD
:1026E000949082809492828292EC08F0828092ECA4
:1026F00008F0829092EC08F0828092EC08F08292CE
:102700002BC3E1FF2CC3E2FFFF0EE66E29C300F0EE
:102710002AC301F017EC00F0828292EC08F00B0E55
:10272000EA6F030EEB6F88C3ECF389C3EDF3060E7B
:10273000EE6F000EEF6F32EC02F0300EEA6F030E18
:10274000EB6F8AC3ECF38BC3EDF3040EEE6F000E58
:10275000EF6F32EC02F01F0EF46F010EF56F6CECB0
:1027600000F01F0E0301F46F020EF56F6CEC00F029
:10277000080E0301F76FF86BF96B23EC00F00A0EFB
:102780000301F76FAD0EF86F190EF96F23EC00F02F
:102790000C0E0301F76FAD0EF86F190EF96F23ECF5
:1027A00000F00301F76BF86BF96B23EC00F0040EFB
:1027B0000301F76FAE0EF86F190EF96F23EC00F0FE
:1027C0001F0E0301F46F010EF56F6CEC00F01F0E8D
:1027D0000301F46F020EF56FC1EC00F08CC38DF3B2
:0427E0000CDC1200FB
:1027E400A3EC15F00F0EC16E070EB46E956A836AE2
:1027F40029DF150E886F000E896F1B0E8A6F000E7D
:0E2804008B6F010E8C6F6ADF3EDFFED7FFD7B1
:102B460010EE15F0F20E006E030E016E120EF66E0A
:0E2B5600280EF76E000EF86E3DEC13F0120024
:062812000014A576193F39
:04281800C0A800054F
:01281C0000BB
:01281D0000BA
:01281E0000B9
:06281F00FFFFFFFFFFFFB9
:0128250000B2
:022826000000B0
:0428280000000000AC
:08282C00000108000604000091
:0128340000A3
:102835003C68746D6C3E3C626F64793E3C666F72B9
:102845006D206E616D653D22696E70757422206D17
:102855006574686F643D22676574223E203C74612F
:10286500626C6520616C69676E3D63656E74657247
:102875002077696474683D353030206267636F6C1A
:102885006F723D204C696768744772617920626F89
:10289500726465723D323E203C74723E3C74642025
:1028A500616C69676E3D63656E74657220636F6CFC
:1028B5007370616E3D323E3C666F6E742073697A4B
:1028C500653D3520636F6C6F723D526F79616C4267
:1028D5006C756520666163653D2276657264616E1F
:1028E50061223E203C623E5765622D4261736564FC
:1028F50020436F6E74726F6C20616E64204D6F6E35
:1029050069746F72696E67207769746820504943EE
:10291500204D6963726F636F6E74726F6C6C657254
:102925003C2F62723E3C2F666F6E743E3C2F746482
:102935003E203C2F74723E3C74723E203C746420F1
:102945006865696768743D223230302220616C69A0
:10295500676E3D63656E746572206267636F6C6F49
:10296500723D4C69676874477261793E3C696E7067
:102975007574206E616D653D225441222074797015
:10298500653D227375626D69742276616C75653D6E
:1029950022544F47474C452052454C41592041222E
:1029A5003E3C2F74643E203C74642068656967680A
:1029B500743D223230302220616C69676E3D63655B
:1029C5006E746572206267636F6C6F723D4C6967E8
:1029D5006874477261793E3C696E707574206E61EA
:1029E5006D653D2254422220747970653D227375D0
:1029F500626D69742276616C75653D22544F474757
:102A05004C452052454C41592042223E3C2F74648E
:102A15003E3C2F74723E3C74723E203C74642061CF
:102A25006C69676E3D63656E74657220636F6C7368
:102A350070616E3D323E3C666F6E742073697A65D7
:102A45003D3220636F6C6F723D526F79616C426CE1
:102A550075652020666163653D2276657264616EE9
:102A650061223E203C6120687265663D20226874C3
:102A750074703A2F2F7777772E73747564656E743B
:102A8500636F6D70616E696F6E2E636F2E7A612252
:102A95007461726765743D225F626C616E6B223E84
:102AA500A920323031342053747564656E74204327
:102AB5006F6D70616E696F6E3C2F613E203C2F62B9
:102AC500723E3C2F666F6E743E3C2F74643E203C14
:102AD5002F74723E203C2F7461626C653E3C2F66FC
:102AE5006F726D3E3C2F626F64793E3C2F68746D4A
:032AF5006C3E0034
:032AF80054410046
:032AFB0054420042
:062AFE00474554202F00A3
:102B0400485454502F312E3120323030204F4B0A4C
:0E2B1400436F6E74656E742D747970653A00AF
:0C2B220001010600122334450000800071
:0C2B2E00746578742F68746D6C0A0A00DE
:062B3A00638253633501C4
:052B400037030103064C
:020000040030CA
:0D000100021F1EFF8381FF0FC00FE00F40A4
:00000001FF
